:020000040804EE
:1000000000F80120D12E0408252F0408252F04080C
:10001000252F0408252F0408252F040800000000C0
:10002000000000000000000000000000252F040870
:10003000252F040800000000252F0408C91F04080C
:10004000252F0408252F0408252F0408252F040830
:10005000252F0408252F0408252F0408252F040820
:10006000252F0408252F0408252F0408252F040810
:10007000252F0408252F0408252F0408252F040800
:10008000252F0408252F0408252F0408252F0408F0
:10009000252F0408252F0408252F0408252F0408E0
:1000A000252F0408252F0408252F0408252F0408D0
:1000B000252F0408252F0408252F0408252F0408C0
:1000C000252F0408252F0408252F0408252F0408B0
:1000D000252F0408252F0408252F0408252F0408A0
:1000E000252F0408252F0408252F0408252F040890
:1000F000252F0408252F0408252F0408252F040880
:10010000252F0408252F0408252F0408252F04086F
:10011000252F0408252F0408252F0408252F04085F
:10012000252F0408252F0408252F0408252F04084F
:10013000252F0408252F0408252F0408252F04083F
:10014000252F0408252F0408252F0408252F04082F
:10015000252F0408252F0408252F0408252F04081F
:10016000252F0408252F0408252F0408252F04080F
:10017000252F0408252F0408252F0408252F0408FF
:04018000252F04081B
:1001880081F0004102E000BF83F0004330B54FEA40
:1001980041044FEA430594EA050F08BF90EA020FAD
:1001A8001FBF54EA000C55EA020C7FEA645C7FEA40
:1001B800655C00F0E2804FEA5454D4EB5555B8BF63
:1001C8006D420CDD2C4480EA020281EA030382EAD4
:1001D800000083EA010180EA020281EA0303362D66
:1001E80088BF30BD11F0004F4FEA01314FF4801C39
:1001F8004CEA113102D0404261EB410113F0004F4B
:100208004FEA03334CEA133302D0524263EB430301
:1002180094EA050F00F0A780A4F10104D5F1200E9F
:100228000DDB02FA0EFC22FA05F2801841F10001FA
:1002380003FA0EF2801843FA05F359410EE0A5F1CE
:1002480020050EF1200E012A03FA0EFC28BF4CF0FF
:10025800020C43FA05F3C01851EBE37101F00045B5
:1002680007D54FF0000EDCF1000C7EEB00006EEBC2
:100278000101B1F5801F1BD3B1F5001F0CD349084C
:100288005FEA30004FEA3C0C04F101044FEA4452A3
:1002980012F5800F80F09A80BCF1004F08BF5FEA2A
:1002A800500C50F1000041EB045141EA050130BD0A
:1002B8005FEA4C0C404141EB010111F4801FA4F1AD
:1002C8000104E9D191F0000F04BF01460020B1FA02
:1002D80081F308BF2033A3F10B03B3F120020CDA3A
:1002E8000C3208DD02F1140CC2F10C0201FA0CF018
:1002F80021FA02F10CE002F11402D8BFC2F1200C7D
:1003080001FA02F120FA0CFCDCBF41EA0C01904032
:10031800E41AA2BF01EB0451294330BD6FEA04047B
:100328001F3C1CDA0C340EDC04F11404C4F1200266
:1003380020FA04F001FA02F340EA030021FA04F378
:1003480045EA030130BDC4F10C04C4F1200220FACF
:1003580002F001FA04F340EA0300294630BD21FA0D
:1003680004F0294630BD94F0000F83F4801306BFD3
:1003780081F480110134013D4EE77FEA645C18BFC7
:100388007FEA655C29D094EA050F08BF90EA020F5E
:1003980005D054EA000C04BF1946104630BD91EA56
:1003A800030F1EBF0021002030BD5FEA545C05D159
:1003B8004000494128BF41F0004130BD14F5800498
:1003C8003CBF01F5801130BD01F0004545F0FE410C
:1003D80041F470014FF0000030BD7FEA645C1ABF41
:1003E800194610467FEA655C1CBF0B46024650EA78
:1003F800013406BF52EA033591EA030F41F40021A4
:1004080030BD00BF90F0000F04BF0021704730B529
:100418004FF4806404F132044FF000054FF00001FE
:1004280050E700BF90F0000F04BF0021704730B5BF
:100438004FF4806404F1320410F0004548BF404294
:100448004FF000013EE700BF42004FEAE2014FEAE9
:1004580031014FEA02701FBF12F07F4393F07F4FC4
:1004680081F06051704792F0000F14BF93F07F4FF6
:10047800704730B54FF4607401F0004521F0004139
:1004880020E700BF50EA010208BF704730B54FF0BF
:1004980000050AE050EA010208BF704730B511F0C4
:1004A800004502D5404261EB41014FF4806404F1FC
:1004B80032045FEA915C3FF4DCAE4FF003025FEA7E
:1004C800DC0C18BF03325FEADC0C18BF033202EB06
:1004D800DC02C2F1200300FA03FC20FA02F001FA60
:1004E80003FE40EA0E0021FA02F11444C1E600BFFF
:1004F80070B54FF0FF0C4CF4E06C1CEA11541DBFB2
:100508001CEA135594EA0C0F95EA0C0F00F0DEF87C
:100518002C4481EA030621EA4C5123EA4C5350EA61
:10052800013518BF52EA033541F4801143F48013B2
:1005380038D0A0FB02CE4FF00005E1FB02E506F043
:100548000042E0FB03E54FF00006E1FB03569CF098
:10055800000F18BF4EF0010EA4F1FF04B6F5007F9E
:1005680064F5407404D25FEA4E0E6D4146EB060610
:1005780042EAC62141EA55514FEAC52040EA5E5099
:100588004FEACE2EB4F1FD0C88BFBCF5E06F1ED843
:10059800BEF1004F08BF5FEA500E50F1000041EB7A
:1005A800045170BD06F0004646EA010140EA020027
:1005B80081EA0301B4EB5C04C2BFD4EB0C0541EA49
:1005C800045170BD41F480114FF0000E013C00F35E
:1005D800AB8014F1360FDEBF002001F0004170BD82
:1005E800C4F10004203C35DA0C341BDC04F114049B
:1005F800C4F1200500FA05F320FA04F001FA05F227
:1006080040EA020001F0004221F0004110EBD370F3
:1006180021FA04F642EB06015EEA430E08BF20EA1F
:10062800D37070BDC4F10C04C4F1200500FA04F3C2
:1006380020FA05F001FA04F240EA020001F0004154
:1006480010EBD37041F100015EEA430E08BF20EAC7
:10065800D37070BDC4F1200500FA05F24EEA020E0F
:1006680020FA04F301FA05F243EA020321FA04F03E
:1006780001F0004121FA04F220EA020000EBD370F5
:100688005EEA430E08BF20EAD37070BD94F0000FF5
:100698000FD101F00046400041EB010111F4801F29
:1006A80008BF013CF7D041EA060195F0000F18BFDA
:1006B800704703F00046520043EB030313F4801F16
:1006C80008BF013DF7D043EA0603704794EA0C0FD0
:1006D8000CEA135518BF95EA0C0F0CD050EA4106E6
:1006E80018BF52EA4306D1D181EA030101F0004163
:1006F8004FF0000070BD50EA410606BF104619468B
:1007080052EA430619D094EA0C0F02D150EA013696
:1007180013D195EA0C0F05D152EA03361CBF1046D7
:1007280019460AD181EA030101F0004141F0FE4176
:1007380041F470014FF0000070BD41F0FE4141F4FA
:10074800780170BD70B54FF0FF0C4CF4E06C1CEAFA
:1007580011541DBF1CEA135594EA0C0F95EA0C0FAF
:1007680000F0A7F8A4EB050481EA030E52EA03356A
:100778004FEA013100F088804FEA03334FF080558B
:1007880045EA131343EA12634FEA022245EA1115B8
:1007980045EA10654FEA00260EF000419D4208BF69
:1007A800964244F1FD0404F5407402D25B084FEA16
:1007B8003202B61A65EB03055B084FEA32024FF4C2
:1007C80080104FF4002CB6EB020E75EB030E22BF1F
:1007D800B61A754640EA0C005B084FEA3202B6EBDF
:1007E800020E75EB030E22BFB61A754640EA5C008E
:1007F8005B084FEA3202B6EB020E75EB030E22BF1E
:10080800B61A754640EA9C005B084FEA3202B6EB1E
:10081800020E75EB030E22BFB61A754640EADC00DD
:1008280055EA060E18D04FEA051545EA16754FEA3F
:1008380006164FEAC30343EA52734FEAC2025FEA5D
:100848001C1CC0D111F4801F0BD141EA00014FF0EC
:1008580000004FF0004CB6E711F4801F04BF0143BD
:100868000020B4F1FD0C88BFBCF5E06F3FF6AFAED9
:10087800B5EB030C04BFB6EB020C5FEA500C50F169
:10088800000041EB045170BD0EF0004E4EEA1131EC
:1008980014EB5C04C2BFD4EB0C0541EA045170BDF3
:1008A80041F480114FF0000E013C90E645EA060E37
:1008B8008DE60CEA135594EA0C0F08BF95EA0C0F65
:1008C8003FF43BAF94EA0C0F0AD150EA01347FF4AD
:1008D80034AF95EA0C0F7FF425AF104619462CE784
:1008E80095EA0C0F06D152EA03353FF4FDAE1046E7
:1008F800194622E750EA410618BF52EA43067FF438
:10090800C5AE50EA41047FF40DAF52EA43057FF4C7
:10091800EBAE12E74FF0FF3C06E000BF4FF0010CD2
:1009280002E000BF4FF0010C4DF804CD4FEA410C36
:100938007FEA6C5C4FEA430C18BF7FEA6C5C1BD003
:1009480001B050EA410C0CBF52EA430C91EA030F84
:1009580002BF90EA020F0020704710F1000F91EAE1
:10096800030F58BF994208BF90422CBFD8176FEAAF
:10097800E37040F0010070474FEA410C7FEA6C5C7D
:1009880002D150EA013C07D14FEA430C7FEA6C5C84
:10099800D6D152EA033CD3D05DF8040B704700BFB0
:1009A8008446104662468C461946634600E000BFFE
:1009B80001B5FFF7B7FF002848BF10F1000F01BDD0
:1009C8004DF808EDFFF7F4FF0CBF012000205DF89B
:1009D80008FB00BF4DF808EDFFF7EAFF34BF012020
:1009E80000205DF808FB00BF4DF808EDFFF7E0FFB9
:1009F80094BF012000205DF808FB00BF4DF808ED0A
:100A0800FFF7CEFF94BF012000205DF808FB00BF70
:100A18004DF808EDFFF7C4FF34BF012000205DF852
:100A280008FB00BF4FEA410212F5001215D211D59A
:100A38006FF47873B3EB625212D94FEAC12343F0D3
:100A4800004343EA505311F0004F23FA02F018BF55
:100A5800404270474FF00000704750EA013005D11E
:100A680011F0004008BF6FF0004070474FF00000E1
:100A7800704700BF80F0004002E000BF81F00041F5
:100A880042001FBF5FEA410392EA030F7FEA226C2C
:100A98007FEA236C6AD04FEA1262D2EB1363C1BFBC
:100AA800D218414048404140B8BF5B42192B88BF2B
:100AB800704710F0004F40F4000020F07F4018BF4E
:100AC800404211F0004F41F4000121F07F4118BF6E
:100AD800494292EA030F3FD0A2F1010241FA03FC16
:100AE80010EB0C00C3F1200301FA03F100F00043FE
:100AF80002D5494260EB4000B0F5000F13D3B0F1C6
:100B0800807F06D340084FEA310102F10102FE2A34
:100B180051D2B1F1004F40EBC25008BF20F00100A4
:100B280040EA03007047490040EB000010F4000F52
:100B3800A2F10102EDD1B0FA80FCACF1080CB2EBE5
:100B48000C0200FA0CF0AABF00EBC2505242184344
:100B5800BCBFD0401843704792F0000F81F40001E9
:100B680006BF80F400000132013BB5E74FEA4103BC
:100B78007FEA226C18BF7FEA236C21D092EA030F28
:100B880004D092F0000F08BF0846704790EA010FA2
:100B98001CBF0020704712F07F4F04D1400028BFCF
:100BA80040F00040704712F100723CBF00F50000B1
:100BB800704700F0004343F0FE4040F400007047E7
:100BC8007FEA226216BF08467FEA23630146420293
:100BD80006BF5FEA412390EA010F40F480007047A6
:100BE8004FF0000304E000BF10F0004348BF40424C
:100BF8005FEA000C08BF704743F0964301464FF088
:100C080000001CE050EA010208BF70474FF00003E3
:100C18000AE000BF50EA010208BF704711F0004324
:100C280002D5404261EB41015FEA010C02BF8446F4
:100C38000146002043F0B64308BFA3F18053A3F553
:100C48000003BCFA8CF2083AA3EBC25310DB01FA9A
:100C580002FC634400FA02FCC2F12002BCF1004F1E
:100C680020FA02F243EB020008BF20F001007047AF
:100C780002F1200201FA02FCC2F1200250EA4C0003
:100C880021FA02F243EB020008BF20EADC70704749
:100C98004FF0FF0C1CEAD0521EBF1CEAD15392EA57
:100CA8000C0F93EA0C0F6FD01A4480EA010C400233
:100CB80018BF5FEA41211ED04FF0006343EA50108D
:100CC80043EA5111A0FB01310CF00040B1F5000FCF
:100CD8003EBF490041EAD3715B0040EA010062F17E
:100CE8007F02FD2A1DD8B3F1004F40EBC25008BF68
:100CF80020F00100704790F0000F0CF0004C08BF86
:100D080049024CEA502040EA51207F3AC2BFD2F152
:100D1800FF0340EAC250704740F400004FF0000360
:100D2800013A5DDC12F1190FDCBF00F0004070479A
:100D3800C2F10002410021FA02F1C2F1200200FAD8
:100D480002FC5FEA310040F1000053EA4C0308BF9F
:100D580020EADC70704792F0000F00F0004C02BFF0
:100D6800400010F4000F013AF9D040EA0C0093F06B
:100D7800000F01F0004C02BF490011F4000F013BC5
:100D8800F9D041EA0C018FE70CEAD15392EA0C0F33
:100D980018BF93EA0C0F0AD030F0004C18BF31F09E
:100DA800004CD8D180EA010000F00040704790F074
:100DB800000F17BF90F0004F084691F0000F91F018
:100DC800004F14D092EA0C0F01D142020FD193EADE
:100DD8000C0F03D14B0218BF084608D180EA010066
:100DE80000F0004040F0FE4040F40000704740F042
:100DF800FE4040F4400070474FF0FF0C1CEAD05210
:100E08001EBF1CEAD15392EA0C0F93EA0C0F69D06B
:100E1800A2EB030280EA010C49024FEA402037D0D6
:100E28004FF0805343EA111143EA10130CF00040CD
:100E38008B4238BF5B0042F17D024FF4000C8B42BD
:100E480024BF5B1A40EA0C00B3EB510F24BFA3EB9D
:100E5800510340EA5C00B3EB910F24BFA3EB91036D
:100E680040EA9C00B3EBD10F24BFA3EBD10340EAC7
:100E7800DC001B0118BF5FEA1C1CE0D1FD2A3FF60D
:100E880050AF8B4240EBC25008BF20F001007047C2
:100E98000CF0004C4CEA50207F32C2BFD2F1FF0365
:100EA80040EAC250704740F400004FF00003013A96
:100EB80037E792F0000F00F0004C02BF400010F43A
:100EC800000F013AF9D040EA0C0093F0000F01F04E
:100ED800004C02BF490011F4000F013BF9D041EA70
:100EE8000C0195E70CEAD15392EA0C0F08D14202A3
:100EF8007FF47DAF93EA0C0F7FF470AF084676E776
:100F080093EA0C0F04D14B023FF44CAF08466EE74E
:100F180030F0004C18BF31F0004CCAD130F000421C
:100F28007FF45CAF31F000437FF43CAF5FE700BF74
:100F38004BB942B9002908BF002802D04FF0FF3151
:100F4800084600F03BB882B0EC462DE9005000F0AE
:100F58001DF8DDF804E002B00CBC70472DE9F04143
:100F68001646984604460D4600F02AF806FB01FC92
:100F7800A6FB002300FB08C7FB18A21A65EB0303B6
:100F8800069CC4E90023BDE8F08100BF2DE9F041CB
:100F9800904606460F461D4600F070F900FB05F323
:100FA800A0FB084508FB0138069B4544341B67EB4A
:100FB8000505C3E90045BDE8F08100BF704700BFE3
:100FC80000292DE9F00F1D46C0F29D800024002D58
:100FD800C0F2948080460F4694461E46E3BB8A4280
:100FE80055D9B2FA82F747B1C7F1200520FA05F6BC
:100FF80001FA07F1BA40B8403143170CB1FBF7F6D4
:101008001FFA82FC07FB16110CFB06F5030C43EADA
:1010180001439D4208D9711E9B1880F013819D429F
:1010280040F21081023E9B18591BB1FBF7F507FBF4
:1010380015130CFB05FC80B240EA03418C4507D927
:101048006B1E8A1880F00081944540F2FD80023DB5
:1010580045EA0641002503E08B420CD900252946C4
:101068000A462B4614B1524263EB43031046194615
:10107800BDE8F00F7047B3FA83F5002D40F0878084
:101088008B4201D38242EAD800250121E8E712B950
:101098000126B6FBF2F2B2FA82F6002E39D18E1A88
:1010A800130C1FFA82FC0125B6FBF3F703FB17614B
:1010B8000CFB07F84FEA104949EA0146B04506D942
:1010C800791EB61802D2B04500F2D3800F46C8EB9D
:1010D8000606B6FBF3F103FB11630CFB01FC80B2BF
:1010E80040EA03439C4506D94E1E9A1802D29445FD
:1010F80000F2C280314641EA0741B1E7E443524277
:1011080063EB430366E7404261EB41014FF0FF3474
:101118005DE7B240C6F1200921FA09F720FA09F97A
:1011280001FA06F1130CB7FBF3F81FFA82FC03FB74
:1011380018770CFB08F549EA01094FEA194141EA19
:101148000747B040BD420AD9BF1808F1FF3680F002
:101158008E80BD4240F28B80A8F10208BF18791B2F
:10116800B1FBF3F503FB15170CFB05F61FFA89F91C
:1011780049EA07418E4206D96F1E891871D28E42FC
:101188006FD9023D89188E1B45EA08458CE7C5F1E1
:10119800200122FA01F306FA05F627FA01F207FA06
:1011A80005F720FA01F11E434FEA1649B2FBF9F898
:1011B8001FFA86FA09FB18220AFB08FB0F433B0CAF
:1011C80043EA024293450CFA05FC08D9921908F142
:1011D800FF314AD2934548D9A8F102089219CBEBBE
:1011E8000203B3FBF9F109FB11320AFB01FABFB2A2
:1011F80047EA02439A4506D94A1E9B1933D29A45B3
:1012080031D902399B1941EA08410F0C1FFA8CF8B1
:1012180008FB07F68AB24FEA1C4C08FB02F80CFBE5
:1012280002620CFB07FC02EB1842964288BF0CF5E1
:10123800803CCAEB03030CEB124C63450ED305D07C
:1012480000250DE70E46EFE61D4601E700FA05F01A
:101258001FFA88F808EB0245A842F1D201390025A7
:10126800FEE63D468FE71146CDE78846B7E7B0462C
:1012780075E7023FB6182AE702393CE72DE9F0077F
:10128800144605460E46002B3DD18A4249D9B2FA8A
:1012980082F747B1C7F1200120FA01F206FA07F6F2
:1012A800BC40BD401643220CB6FBF2F0A1B202FBD3
:1012B800106601FB00F32F0C47EA0646B34208D933
:1012C800471E361980F0FA80B34240F2F7800238A0
:1012D8003619F61AB6FBF2F302FB136201FB03F1AF
:1012E800ADB245EA0242914207D95E1E121980F05A
:1012F800E780914240F2E480023B43EA004000214B
:10130800BDE8F00770478B4243D8B3FA83F4002C4A
:1013180042D18B4202D3824200F2E18000210120B7
:10132800EEE712B90127B7FBF2F4B4FA84F2002A07
:1013380040F089800A1B230CA7B20121B2FBF3F607
:1013480003FB162207FB06F04FEA154C4CEA024253
:10135800904207D9121906F1FF3C02D2904200F2DE
:10136800D0806646121AB2FBF3F003FB102307FB8A
:1013780000F7ADB245EA03439F4207D9421E1B1945
:1013880080F0A0809F4240F29D80023840EA0640EB
:10139800B6E700210846B3E7C4F1200622FA06F7AB
:1013A80003FA04F321FA06F501FA04F120FA06F625
:1013B8003B434FEA134CB5FBFCF71FFA83F80CFBD1
:1013C800175508FB07F946EA010A4FEA1A4141EAAC
:1013D8000545A94502FA04F204D97E1EED18C0F0AD
:1013E80081803746C9EB0501B1FBFCF60CFB1615ED
:1013F80008FB06F81FFA8AFA4AEA0541884503D924
:10140800751EC91874D32E4646EA0746370C1FFACC
:1014180082FC0CFB07F5120CB3B20CFB03FC02FBBD
:10142800035302FB07F203EB1C439D4288BF02F5FE
:101438008032C8EB010102EB134291424CD343D0F6
:10144800304600215CE79440C2F1200521FA05F6F8
:1014580020FA05F501FA02F1230CB6FBF3FCA7B25A
:1014680003FB1C6607FB0CF829430D0C45EA0646EE
:10147800B04500FA02F508D936190CF1FF303ED212
:10148800B0453CD9ACF1020C3619C8EB0602B2FBE8
:10149800F3F003FB102607FB00F889B241EA064285
:1014A800904506D9461E121927D2904525D90238EB
:1014B8001219C8EB020240EA0C413FE7384608E738
:1014C80033461AE7104661E700FA04F01FFA8CFC6D
:1014D8000CEB03439842B3D2701E002110E721465B
:1014E80020460DE7A9457FF67CAF023FED1879E766
:1014F800884588D9023EC91886E73046D9E7844628
:10150800C3E7023E12192DE710B50C4C4FF0C0513D
:10151800204600F045FE10B96368002BF5D1074856
:10152800074900F059FE0021044800F02FFE054845
:1015380002210022BDE8104001F037B9586402408A
:10154800008000180030014008B50648022101F06B
:1015580035F90028F9D08021024801F02FF9012837
:10156800F9D008BD0030014070B506460C46144855
:101578000021154600F0EAFC1248002100F0E6FCC4
:101588001148314601F00FF9FFF7DEFF0D48012140
:1015980000F0DCFC74B10D4801214460C56000F026
:1015A800F5FD09480221012201F0FFF8FFF7ACFF21
:1015B800FFF7CAFF02480121BDE8704000F0C6BC31
:1015C800687E0408907E0408003001405864024098
:1015D80013B51C3304091C3100F00F00C9B2DBB28B
:1015E8008DF80100100902F00F028DF802008DF845
:1015F800032008091A0901F00F018DF804008DF87D
:1016080005108DF8062003F00F030A2008216A460A
:101618008DF800408DF80730FFF7A6FF1CBD0000CD
:10162800F8B505460E461548002100F08FFC144811
:10163800002100F08BFC13480C2101F0B4F8FFF7EF
:1016480083FF0F48012100F081FC2F0A0024B442D7
:101658000ED00C48394601F0A6F80134FFF774FFA4
:101668000848E9B201F09FF8A4B2FFF76DFFEEE772
:1016780002480121BDE8F84000F068BC687E040813
:10168800907E0408003001402DE9F8431446421EBC
:101698001D46A6184B1EF2B2EF18194EFBB2DFF822
:1016A8006C80DDF82090174FFFF792FF304600213D
:1016B80000F04CFC6C434046002100F047FC3846E3
:1016C8000C2101F070F8FFF73FFF4046012100F0C0
:1016D8003DFC0D48640044600121C0F80C9000F006
:1016E80055FD38460221012201F05FF8FFF70CFF93
:1016F800FFF72AFF30460121BDE8F84300F026BC79
:10170800687E04080030014058640240907E040856
:1017180007B55A2828BF5A20030900F00F008DF892
:1017280005008DF803008DF8010006210E206A4699
:101738008DF804308DF802308DF80030FFF714FF73
:101748000EBD000008B50020FFF7E2FF00210648A3
:1017580000F0FCFB0021054800F0F8FB04480021DC
:10176800BDE8084000F0F2BB90800408FC7F040844
:101778002480040870B56248D6B0002100F0E6FB6A
:101788006048012100F0E2FB5F48012100F0DEFB28
:101798005E48012100F0DAFB5D4A5E4BD068D968EB
:1017A80002250843012100F03BFF01214FF480503E
:1017B80000F04EFF584800F099FF4FF48270002463
:1017C8004FF40073ADF80A00ADF80E5052480125E9
:1017D80002A9ADF81230ADF81050ADF80840ADF8D8
:1017E8000C40ADF81440ADF8164000F0B1FF2946A2
:1017F800494800F0CCFF29464FF4800000F010FF64
:101808004FF0C061454A079140204FF400314FF432
:10181800806308920A9004221191414807A90D9308
:10182800129209940B940C940E940F9410941394A0
:101838001494159400F080FC2146334800F086FB90
:101848000A2000F0B2FB29462F4800F07FFB0A204F
:1018580000F0ABFB284621462246FFF785FE0A200A
:1018680000F0A3FB2F4B07A803F130050446596885
:101878001868083303C4AB422046F7D107AB1C787D
:1018880044B15D789E1C204629463246FFF76CFE1F
:101898007319F4E72820FFF73BFF16A821464FF4F9
:1018A800807201F035FC16A98022009100202146A3
:1018B8000123FFF7E9FE621CD4B2802CF3D1012189
:1018C800022002AA8DF80810FFF74EFE00240C48EB
:1018D800012100F03BFB0025A54203D10848002167
:1018E80000F034FB0135B5F5FA6FF5D10134B4F5E4
:1018F800FA6FECD10248012100F028FB56B070BD08
:1019080090800408FC7F040824800408907E040862
:10191800D08004087C7E0408003001400C3001406F
:1019280058640240FC7C040838B5064C0546012181
:10193800204600F08FFD2046012100F077FD284663
:1019480038BD00BF005400401FB501214FF40010FE
:1019580000F072FE174B1849D868CA680121104375
:1019680000F05EFE154C01214FF4001000F07CFEE3
:1019780000214FF4001000F077FE2046012100F00E
:101988003DFD0020ADF804000D48A0214BF6FF7383
:10199800ADF80630ADF808104FF4806200904FF4AF
:1019A800804320466946ADF80A20ADF80C3000F0B7
:1019B800BBFC1FBD108104084C8004080054004083
:1019C800A08601002DE9F04107460D462E48012169
:1019D80014461E4600F01EFD00F0CAFA80462A484A
:1019E8002A4900F048FD38B900F0C2FAC8EB0003F4
:1019F800632BF4D902203CE039462348002200F04A
:101A080021FD00F0B5FA07461F48214900F033FDD3
:101A180030B900F0ADFAC21B632AF5D9032028E0DB
:101A28002946194800F022FD00F0A2FA054616489A
:101A3800184900F020FD28B900F09AFA411B6329E3
:101A4800F5D915E0A619B44217D00F4814F8011BB0
:101A580000F00CFD00F08CFA05460B480D4900F02B
:101A68000AFD0028EFD100F083FA401B6328F4D95F
:101A78000420BDE8F041FFF757BF0348012100F0FB
:101A8800D5FC0020BDE8F0810054004001000300AF
:101A980082000700840007002DE9F04106460F4642
:101AA80015461C4600F064FA804651484FF4003150
:101AB80000F0EDFC40B100F05BFAC8EB0002632ACD
:101AC800F3D90120BDE8F0814948012100F0A2FCCA
:101AD80000F04EFA80464648464900F0CCFC38B93A
:101AE80000F046FAC8EB00016329F4D902207BE034
:101AF8003F483146002200F0A5FC00F039FA804644
:101B08003B483D4900F0B7FC38B900F031FAC8EB62
:101B180000006328F4D9032066E03548012100F06D
:101B28006DFC3946324800F0A1FC00F021FA074666
:101B38002F48324900F09FFC30B900F019FAC31B56
:101B4800632BF5D904204FE02948012100F062FCFD
:101B580000F00EFA07462648264900F08CFC30B9FA
:101B680000F006FAC21B632AF5D905203CE031468D
:101B78001F48012200F066FC00F0FAF906461C48EE
:101B88001F4900F078FCE0B900F0F2F9811B6329E5
:101B9800F5D9062028E03CB91548214600F05AFC42
:101BA8001348012100F042FC00F0E2F90646104813
:101BB800144900F060FC48B10D4800F059FC05F8E4
:101BC800010C013C0135631CE5D106E000F0D0F9B9
:101BD800801B6328EBD9072006E00548012100F0A7
:101BE80039FC0020BDE8F081BDE8F041FFF79CBE5C
:101BF8000054004001000300820007008400070031
:101C0800020003004000030013B5044672B6294BD6
:101C18001A88501C81B20120198000F08BFC00F05A
:101C280093FC0428FBD1002000F07EFC206900F022
:101C380093FC606900F0A4FCA06900F097FCE068E0
:101C480000F0E2FAA188D9B900F02AFE1A4B4FF445
:101C58007A711A68194BB2FBF1F0421E1848F0214C
:101C68005A6080F82310002207219A60196072B622
:101C7800104803885A1E91B20180C9B962B617E0AC
:101C88006089E288009023894FF4800000F03CFCD2
:101C9800012000F049FC392000F0FEFC0028FAD0B1
:101CA800022000F047FC00F04FFC0828FBD1CBE7EE
:101CB8001CBD00BFEC190020200C002010E000E043
:101CC80000ED00E010B500F0FDFB012000F014FC71
:101CD80000F0F6FC012804460CD100F09BFA2046DF
:101CE80000F0A4FA204600F0ADFA0348BDE8104021
:101CF800FFF78ABF10BD00BFC47D040813B51B4C95
:101D080023780BB1002030E04F2074214E22692344
:101D18008DF804008DF805108DF806208DF8073031
:101D28009020022101AA0123FFF74CFE0028E9D1E7
:101D3800902003210DF105020123FFF743FE00283F
:101D4800E0D1902004210DF106020123FFF73AFEAD
:101D58000028D7D1072190200DEB01020123FFF7BE
:101D680031FE0028CED1012020701CBD951900201D
:101D7800124B13B50446187808B900201CE001215D
:101D880090200DF107020B46FFF786FE0028F4D1DC
:101D98009DF8071014B141F0010301E001F0FE03C2
:101DA80002AA02F8013D902002210123FFF70AFE52
:101DB800D0F1010038BF00201CBD00BF95190020DC
:101DC800114B37B50446187808B900201BE00F4DB1
:101DD800902029780DF10602217001230221FFF7D6
:101DE8005BFE0028F1D1012190200DF107020B467E
:101DF800FFF752FE0028E8D19DF807200120C2F322
:101E0800C0032B7023703EBD951900209419002043
:101E180030B58BB0684600F027F9684600F010F935
:101E2800134D01214FF4407000F012FC114C04A82E
:101E380000F0FCF8284604A900F0D2F8204604A9CE
:101E480000F0CEF8012228460221134600F01BF9C3
:101E5800012220460E21134600F015F928460121DB
:101E680000F008F92046012100F004F90BB030BD5C
:101E78000020014000210140084808B5012100F078
:101E880065F8074800F04CF9054800F04EF90028BD
:101E9800FAD10348BDE8084000F04BB9407E040879
:101EA80000200140084808B5012100F04FF8074814
:101EB80000F036F9054800F038F90028FAD103484F
:101EC800BDE8084000F035B9108004080021014041
:101ED80037B543680C460546087849780093A278D8
:101EE800E3788DF804008DF80510286869468DF8A8
:101EF80006208DF8073000F0B1F92078022805D1C6
:101F08002868297A227900F0F7F90AE0B4F906205E
:101F1800531C06D000322868A98818BF012200F097
:101F2800E6F93EBD10B5A6B068460749982201F00B
:101F380041F800245DF8040004340169FFF7C8FF84
:101F4800982CF7D126B010BD2C7D04080139034622
:101F58004A424A410068998800F0C9B908B5034661
:101F68009988006800F0BDF9003018BF012008BD4D
:101F780072B6074B1A88501C81B2064A198010683D
:101F880072B619884A1E91B2198001B962B67047B3
:101F9800EC1900209819002082B00190019B5A1E6C
:101FA8000192002BFAD102B0704738B50446FFF70A
:101FB800DFFF0546FFF7DCFF401BA042FAD338BD20
:101FC800064B684620F007011A688D4601B5501C7B
:101FD8001860BDE801408546704700BF9819002089
:101FE800426810B522F040730A6823F4807444EA0A
:101FF80002030C7943EA042242600B69CA688468C8
:102008001A438B681A43084B234013434A7943EA1F
:1020180042038360097DC26A4B1E22F47002D9B262
:1020280042EA0152C26210BDFDF7FFC00023012140
:102038000360037143718360C36003610175704776
:10204800074A084B516810B50B4090E812000C4342
:102058008168C068214301430B43536010BD00BF32
:1020680000230140E030FCFF0023036043608360ED
:10207800C3607047836811B143F0010101E023F0A8
:10208800010181607047092970B54FF003040CD92C
:102098004C4307251E3C05FA04F503FA04F3C66809
:1020A80026EA05052B43C3600BE04C43072505FAD8
:1020B80004F503FA04F3066926EA050545EA03046C
:1020C8000461062A4FF005030DD8013A53431F2235
:1020D80002FA03F201FA03F1446B24EA020242EA2B
:1020E8000103436370BD0C2A0DD853431F22233BC1
:1020F80002FA03F201FA03F1046B24EA020242EA4B
:102108000103036370BD53431F22413B02FA03F2EC
:1021180001FA03F1C46A24EA02021143C16270BDE4
:10212800836843F08041816070478068C0F38050C5
:102138007047C06C80B270470268134B10B51340EB
:10214800CC680A6814434A6914438A691443CA6903
:1021580014430A6A14434A6A14438A6A14434A6B4A
:1021680014438A6B1443234303604269CB6A22F009
:1021780007040A6B1A43224342610B694A6889685B
:1021880043608260C16010BD3F801CF0036811B1DC
:1021980043F0010101E023F00101016070470000F4
:1021A8000A4B10B50A4A0B4CA0428CBF1046184681
:1021B8008B004CBF4368036821F0F02121F08212A4
:1021C8001A420CBF0020012010BD00BF0060024071
:1021D800006402400F64024010B5084B084A094CDD
:1021E800A0428CBF1046184611F0005F21F0F02184
:1021F80021F0821314BFC360836010BD00600240E9
:10220800006402400F640240014BC0B2187070476E
:10221800003C0240044B1A6810B142F4807001E09F
:1022280022F4807018607047003C0240044B1A6822
:1022380010B142F4007001E022F400701860704799
:10224800003C0240044B1A6810B142F4806001E07F
:1022580022F4806018607047003C02402DE9F0418C
:102268000F680023012202FA03F202EA07059542E9
:1022780032D15A00032404FA02F40668E4432640E3
:1022880006600E79D0F800C006FA02F8013E48EA66
:102298000C0C012EC0F800C015D891F805C086684E
:1022A8000CFA02FC2640866086684CEA06068660C0
:1022B800466826EA050545608D79466805FA03F5FE
:1022C800ADB235434560C5682C40CD79C46005FA88
:1022D80002F2C4682243C2600133102BC2D1BDE8A8
:1022E800F081036919420CBF0020012070470AB130
:1022F800018370474183704701F0070330B59B00A5
:102308000F2404FA03F402FA03F2C908083150F85A
:10231800215025EA040440F8214050F82140144394
:1023280040F8214030BD0000F0B58688044685B0ED
:1023380026F03F000D46010468460E0C00F02AF90D
:102348002C4A0299B1FBF2F087B23E43A68023885B
:1023580023F0010213041A0C22802B68264A9342A8
:102368000AD85B00B1FBF3F0013783B2BFB2278410
:10237800032B98BF042320E0EE884BF6FF729642A9
:1023880004D103225343B1FBF3F305E0192253436D
:10239800B1FBF3F141F4804399B20A054FF4967208
:1023A80008BF41F00101504341F400434FF47A71F2
:1023B80090FBF1F0421C91B22184A383228891B250
:1023C80041F001032380208820F4816222F0020179
:1023D8000B04AA886989180C41EA02032989AA8989
:1023E800184380B241EA0203208098B2208105B0E8
:1023F800F0BD00BF40420F00A0860100038819B15C
:1024080099B241F0010303E023F001010A04130C1F
:1024180003807047038819B199B241F4807303E0CF
:1024280023F480710A04130C03807047038819B1E0
:1024380099B241F4007303E023F400710A04130C09
:102448000380704712B141F0010101E001F0FE0183
:1024580001827047038819B199B241F4806303E09F
:1024680023F480610A04130C0380704701827047CB
:10247800008AC0B27047838A008B9AB242EA00434E
:102488000B4023F07F42511A48424841704782B0BE
:102498000023009301930190080F0090009A21F007
:1024A8007F4112B1019B143302E0019B090C1833E0
:1024B80001930198026811420CBF0020012002B06C
:1024C800704700000A4B1A6842F0010000221860A9
:1024D8009A60196821F0847020F4803105481960E9
:1024E8005860196821F480201860DA60704700BFCE
:1024F8000038024010300024024B00221A70187075
:10250800704700BF0238024010B50143029C41EAFF
:1025180082125B0842EA0460591E024A40EA0144FA
:10252800546010BD00380240014B1860704700BF6E
:1025380060004742034B9A6822F003010843986001
:10254800704700BF00380240024B986800F00C004A
:10255800704700BF00380240034B9A6822F0F00130
:1025680008439860704700BF00380240034B9A68E0
:1025780022F4E05108439860704700BF00380240D9
:10258800034B9A6822F4604141EAC00098607047A2
:10259800003802401E4B10B59A6802F00C0104295D
:1025A80003D0082903D01B4B18E01B4B16E05C68CE
:1025B8005A6814F4800F596814BF174B154B02F072
:1025C8003F02B3FBF2F3124AC1F388145168634324
:1025D800C1F30144621C5100B3FBF1F30C490360E1
:1025E8008C680E4AC4F30313D45C036823FA04F31B
:1025F80043608C68C4F38224145D23FA04F4846075
:102608008968C1F34231525C23FA02F3C36010BDFA
:10261800003802400024F40080BA8C01000C00202D
:10262800044B1A6B09B1104301E022EA0000186359
:10263800704700BF00380240044B1A6C09B11043C0
:1026480001E022EA00001864704700BF0038024029
:10265800044B5A6C09B1104301E022EA00005864A7
:10266800704700BF00380240044B1A6A09B1104392
:1026780001E022EA00001862704700BF00380240FB
:10268800044B5A6A09B1104301E022EA000058627B
:10269800704700BF003802404309012B074A01D1A7
:1026A800136803E0022B0CBF136F536F00F01F0079
:1026B80023FA00F101F00100704700BF0038024022
:1026C80007B5002301933120FFF7E6FF01994A1C63
:1026D8000192019BB3F5A06F01D00028F3D03120FF
:1026E800FFF7DAFF003018BF01200EBD08B5154B03
:1026F80098420BD101214FF48050FFF7C1FF4FF4EE
:1027080080500021BDE80840FFF7BABF0E49884253
:1027180007D14FF480400121FFF7A6FF4FF4804016
:1027280009E00A4A90420BD14FF400400121FFF71B
:102738009BFF4FF400400021BDE80840FFF794BF1D
:1027480008BD00BF0030014000380040003C004098
:102758000B8810B54C88028823438C8802F44152B8
:102768002343CC8823430C8923434C8923438C89F6
:102778002343CC89098A23431A4393B20380828B6B
:1027880022F400631A04130C8383018210BD0388AA
:1027980019B199B241F0400303E023F040010A0463
:1027A800130C038070478181704783889BB20AB1FC
:1027B800194301E023EA0101818070470389194226
:1027C8000CBF0020012070472F4B82B01A6842F0DE
:1027D8000100002218609A60196821F0847020F4C2
:1027E80080312A4819605860196821F480201860DF
:1027F800DA60009201921A6842F480311960224B23
:10280800186800F4003201920099481C0090019A5F
:102818001AB90099B1F5A06FF1D11B6813F4003013
:1028280018BF01200190019A012A04D01849194AB9
:10283800916002B07047144B99689960986840F4A9
:1028480000429A609968144A41F4A05098605A600E
:10285800196841F08070186019680B4A8901FBD526
:102868000E4B40F203701860916821F003009060ED
:10287800936843F002019160034A906800F00C03EA
:10288800082BF9D1D2E700BF0038024010300024ED
:102898000000040800ED00E0193C4005003C02403F
:1028A800184B194A996801F00C00042803D008282D
:1028B80003D0164B19E0164B17E059685A6811F403
:1028C800800F596814BF124B104B02F03F00B3FB46
:1028D800F0F30C48C1F3881241685343C1F3014235
:1028E800501C4100084AB3FBF1F3064813608168A5
:1028F800084AC1F303130449D05C0B6823FA00F3B8
:102908000B60704700380240200C00200024F400BF
:1029180080BA8C01100C0020094B1A680AB90949C1
:1029280019601B686A461818904205D9064B0C2096
:1029380018604FF0FF3301E00149086018467047FE
:102948009C190020F4190020F019002070B5C8B2B5
:10295800BDF91040D1B2421E1D46D2184B1E1B199C
:10296800D2B2DBB2BDF81460FEF732FE05FB04F10B
:10297800304689B2BDE87040FEF752BE38B5C8B2DD
:10298800D1B2421E1C46D318DAB20B46BDF810501D
:10299800FEF71EFE2846A1B2BDE83840FEF740BE4D
:1029A80038B5C8B2D1B21C464B1E1B190246DBB261
:1029B800BDF81050FEF70CFE2846A1B2BDE838401D
:1029C800FEF72EBEC8B2D1B210B502461C460B4661
:1029D800FEF7FEFD20460121BDE81040FEF720BEAF
:1029E80000207F2210B513460C460146FEF7F0FD85
:1029F80020464FF48041BDE81040FEF711BE0000AC
:102A08002DE9F04F05468DB09346B5F908208A4662
:102A1800BDF85800BDF85C105245069007919DF826
:102A2800604040F38980B5F90A00584540F3848036
:102A3800052202FB04A100297EDD0BEBC40000285F
:102A48007ADD5A4306230A9209934FF000084FFA99
:102A580088F6052E05D03A4F0A9AB91811F806904B
:102A680001E04FF000094FFA88F31FFA8AF09EB28E
:102A780004FB060704961FFA8BF606F10801BAB2A2
:102A8800039088B208920B903746059619F0010F0B
:102A980019D0012C2A680BD10498DDF80CE0D2F883
:102AA80000C000EB0E0319B228463AB2069B1CE0A0
:102AB800069923B201910093D2F80CC0089A2846CF
:102AC80011B232B220E0079B069A93421DD0012C26
:102AD8002A680CD10498DDF80CC000EB0C0319B27D
:102AE800079BD2F800C028463AB2E0470DE00799A4
:102AF80023B201910093D2F80CC0DDF814E0089AD3
:102B0800284611B20FFA8EF2E047059901370B9B60
:102B18000A19BFB2361990B29F424FEA5909B6B2A4
:102B28000590B3D1099908F101084A1E12F0FF0077
:102B38005FFA88F809908AD10DB0BDE8F08F00BF20
:102B4800240C002030B50A2985B004460B4604D170
:102B5800007DE18901EBC00322E00D2923D0058A1D
:102B6800B0F90C10B0F90E200095458A0195057D45
:102B78000295FFF745FFA289237D062101FB03206B
:102B8800617D82B2A28171B1B4F908106FF00500BD
:102B980000FB031112B28A4205DDE28902EBC3038E
:102BA8000022E381A281012005B030BD38B5054679
:102BB8004C1E14F8011F19B12846FFF7C3FFF8E7A8
:102BC80038BD10B50446FFF7F1FFE389227D0021E7
:102BD80003EBC200E081A18110BD0000084A8021FA
:102BE8000260002281800181C180418182814FF68B
:102BF800FF71C281012202754182018242757047CC
:102C08005881040810B51A48FFF7C6F9FFF78AF982
:102C18001848FFF7A3F918B117481849FFF758F9EA
:102C2800FFF750F872B6164C2388581C81B22180E1
:102C3800FFF736FE134A4FF47A731068B0FBF3F1CE
:102C48004A1E11481149F023426081F823300022BE
:102C5800072382600360FFF7DBF872B62088411E05
:102C68008AB2228002B962B6BDE81040FEF76CBE97
:102C7800400D0300F4800408347F0408E48004084D
:102C8800EC190020200C002010E000E000ED00E02E
:102C9800012138B51F48FFF759F9FA20FFF785F9E0
:102CA8001C480021FFF752F91B48FFF757F9054662
:102CB8000028F9D1194CFEF75DFD204645F2555123
:102CC800FFF78EFE01204FF6FF732075144920464A
:102CD80023826382A581E581FFF768FFFFF70EF87D
:102CE80010B120460F4901E00F492046FFF769FF60
:102CF8000A480E49FFF75AFF0120FFF739F810B1CB
:102D08000648084901E005480749BDE83840FFF78B
:102D180058BF00BF60800408707F0408A019002015
:102D2800708104087F81040882810408878104086F
:102D38002DE9F0414F4C8CB0282545F25553182207
:102D480020460193002180230095FFF7FFFD002610
:102D58001820A681E08148492046FFF727FF474809
:102D6800FFF7FCF8DFF84081454F012814BF4146C2
:102D780039462046FFF725FF20464249FFF716FF50
:102D88000DF10F00FFF71CF89DF80F102046B14217
:102D98000CBF41463946FFF714FF3022E281A68175
:102DA800FFF76AF841F25813584340F6FF7690FB54
:102DB800F6F080B2FDF714FF3349FEF71DF8FDF772
:102DC80043FB0B460246314904A800F037FA204677
:102DD80004A9FFF7F6FEFFF765F8642242432C4981
:102DE80092FBF6F204A800F029FA204604A9FFF79E
:102DF800E8FE2848FEF708FF9620FFF7D6F82C468D
:102E080020460134FEF784FCE4B20220FFF7CDF837
:102E18005B2CF5D15A242046FEF77AFC0220FFF7F6
:102E2800C4F8611ECCB2272CF5D19620FFF7BDF867
:102E38001948FEF7E9FE1948FFF790F8B0B1FEF718
:102E480081FC01211648FFF781F8FA20FFF7ADF859
:102E580013480021FFF77AF81048FFF77FF801467A
:102E68000028F9D10F48FFF771F8FEE70CB0BDE86C
:102E7800F08100BFA01900209D810408F480040897
:102E880096810408AD81040800007A44BD810408D5
:102E9800CC810408E07D0408C47D0408707F040820
:102EA80060800408248104089A81040808B5FFF7A3
:102EB800A9FEFFF7EDFEFFF73BFFFCE70148FFF730
:102EC8008DBE00BFA0190020002100F004B80E4BF1
:102ED8005B58435004310D480D4B42189A42FFF499
:102EE800F6AF0C4A00F003B8002342F8043B0A4B43
:102EF8009A42FFF4F9AFFFF767FC00F011F8FFF70B
:102F0800D5FF7047704700006C830408000C002050
:102F18009419002094190020F4190020FFF7FEBF2F
:102F2800F8B5204F204C381B871017D07A1E23681D
:102F3800012502F001069847AF420FD02EB154F890
:102F4800041F02258847AF4208D0606880470235D1
:102F5800A268261D90470834AF42F6D1134F144C8F
:102F6800FFF7D0FF3B1B9F1018D07D1E216805F08E
:102F7800010601258847AF4211D02EB154F8040F3D
:102F880002258047AF420BD0626890470235A3689C
:102F9800261D98470834AF42F6D1F8BDF8BDF8BDF4
:102FA800F8BD00BF68830408688304086C830408BC
:102FB800688304080F2A2DE9F00340F2A18041EA52
:102FC80000039B0740F09E800C68A2F11005046086
:102FD8004B68AC4643608C68BCF10F0F8460CC68CA
:102FE800C5F30015C46000F1100301F110042BD9DA
:102FF80075B12568ACF1100C1D6065685D60A56849
:103008009D60E5681034DD601033BCF10F0F1BD9EB
:10301800276804F110061F60676803F110055F60F8
:10302800A768ACF1200C9F60E768DF6024691C6129
:10303800776806F110046F60B7682033AF60F668F0
:10304800BCF10F0FEE60E3D8A2F1100828F00F03CF
:1030580002F00F0403F1100C032C00EB0C0301EB3E
:103068000C0851D9211F4FEA9109444608EB890CF5
:1030780054F8046BC8EB0C010CF1040C1D466445B4
:1030880045F8046BC1F3800112D029B154F8041B30
:10309800644545F8041B0BD0274657F8041B2E46F9
:1030A80046F8041B64686C603C1D351D6445F3D10B
:1030B80009F1010C4FEA8C0902F0030208EB09013F
:1030C8004B44D2B10D789A18DC4303F8015B14190C
:1030D800934204F0010410D02CB111F8014F03F809
:1030E800014B934209D04D781C4604F8015B8D785A
:1030F80002315D70631C9342F5D1BDE8F00370475F
:103108000346DEE70346DDE741462246D9E700BF2E
:10311800F0B48407034600F08D80541E002A00F0A6
:103128008780E507CEB211D41A4602F8016B134620
:103138001546920710D0621E002C79D003F8016B57
:1031480014469A071D4607D0013CEDE7034603F8ED
:10315800016B9A071D46F7D1032C52D9CEB246EA25
:1031680006270F2C47EA07432DD9A4F1100217466A
:103178000F2FC2F300162B606B60AB60EB6005F19C
:10318800100216D93EB1103F136053609360D360AC
:1031980010320F2F0DD9203F02F110061360536033
:1031A8009360D360136153619361D36120320F2F11
:1031B800F1D8A4F1100222F00F0204F00F0410322B
:1031C800032C15441DD9271F3E462A46032E42F8D4
:1031D800043BC7F380070DD927B1043E032E42F8FC
:1031E800043B07D9174647F8043B083E53603A1D8D
:1031F800032EF7D8231F23F00302131D04F0030442
:10320800ED18ACB1C9B2EA432C1905F8011BA31893
:10321800A54203F001020BD01AB105F8011BA54223
:1032280006D02B4603F8011B69705D1CA542F8D136
:10323800F0BC7047054614468EE700BF0EB4F0B5E3
:103248009CB021AC54F8042B41F248536FF0004570
:10325800C2F20003064602A90495079518684FF4C0
:10326800027723464FF6FF75ADF81470029606965E
:10327800ADF81650019400F009F8029900220A707E
:103288001CB0BDE8F04003B0704700BF2DE9F04F17
:10329800C3B08B46109314460C9003F0EFF8006807
:1032A800002600271490CDE9166704F075F9BBF8DD
:1032B8000C30189003F0800001B221B1DBF8102027
:1032C800002A01F0CA82002732AEDFF82095119754
:1032D8000896259627972697A24619971A970F9723
:1032E8009AF80040002C00F0A281252C00F09F8164
:1032F8000AF1010301E0252D04D01D781C46013395
:10330800002DF8D1CAEB04057DB1269A2798531CE5
:103318004119072BC6F800A075602791269300F382
:10332800698108360F9F7F190F972078002800F0D1
:103338006981002104F1010A94F801804FF0FF34FB
:103348000D918DF8731009910A9420202B210AF110
:10335800010AA8F12002582A00F25D82DFE812F083
:1033680074025B025B027E025B025B025B025B0231
:103378005B025B02B901C5015B024301CA015B0242
:1033880085028C028C028C028C028C028C028C02CC
:103398008C028C025B025B025B025B025B025B02DB
:1033A8005B025B025B025B02870088015B028801AB
:1033B8005B025B025B025B02F8015B025B026D0071
:1033C8005B025B025B025B025B0259005B025B0211
:1033D800FF015B025B025B025B025B025B025B025A
:1033E8005B025B025B02E6018B00880188018801B1
:1033F800AA028B005B025B02D7025B029D0271008E
:103408001F0234025B02B1025B025D005B025B02D9
:103418004802099D45F010020992099B990600F19E
:103428000882099CE20641F19180109F3D683B1D8E
:1034380010932C460123002516E1099A42F0100149
:103448000991099B13F0200340F00481099C14F0B2
:10345800100040F06187099D15F0400300F05C877B
:10346800109F03463A1D3C8800251092FCE0099DF8
:1034780045F010030993099FBF0640F1DA80109CBC
:10348800E01D20F00705D5E90023083510951446FE
:103498001D46002A73F10000C0F2358701230A9FF8
:1034A800002F03DB099921F08000099054EA0500F8
:1034B80040F0EF830A9A002A40F0EB83002B40F09B
:1034C8005886099BDA0741F1178042AF30210898E6
:1034D80007F8411DC21B0E920A990E9800248842D3
:1034E800B8BF08469DF873300B901291159413B12C
:1034F8000B9B5A1C0B92099810F002010A9102D0FA
:103508000B9A941C0B94099B13F08400139040F0C1
:1035180028820D9D0B996D1A002D40F32282102DE3
:1035280041F31482279A269B48F230201024C0F6D3
:10353800040086E811001119A7485A1CA5F1110EBC
:10354800072A1B9027912692CEF3001300F36C856F
:103558000836103D102D40F3F8818BB1013248F246
:1035680030231031C0F60403072A86E81800279193
:10357800269200F368850836103D102D40F3E5814A
:1035880033462E463D460C9F13E00833013248F27D
:1035980030201031C0F60400103E072A83E81100DD
:1035A8002791269200F3BF81103E0833102E40F376
:1035B800C981013248F230201031C0F60400072AD0
:1035C80083E8110027912692DFDD3846594625AA5F
:1035D80004F012F8E8B92799269A32ABD6E70D9C81
:1035E800109267420D97099B43F0040209929AF8DA
:1035F8000080ACE60C98594625AA03F0FDFF40B9B7
:1036080032AE8FE6279C24B10C98594625AA03F0C0
:10361800F3FFBBF80C100F9C01F040031AB2002A0C
:1036280018BF4FF0FF34204643B0BDE8F08F544632
:103638007BE60999CD0600F15986099C640640F19C
:1036480055861098B0F90040021DE51710922B46D8
:1036580022461EE7109BDF1D27F0070202F1080132
:1036680010910023D2E9004500208DF8730016E779
:10367800109DEF1D27F007010D684C680831109167
:1036880028462146CDE916012146284603F03EFF8B
:1036980001282146284640F0408700220023FDF7F4
:1036A80099F9002841F0F8819DF8733000274B4ABA
:1036B800099912974A4F03200B90B8F1470FD8BFCA
:1036C800174621F080040320002209940E901592D9
:1036D8000DE7109A109B17681A1D002F0D97FFF61B
:1036E8007EAF9AF80080109231E68DF873109AF840
:1036F80000802CE6544614F8018BB8F12A0F01F02B
:10370800F482A8F130030022092B01F23E8214F85A
:10371800018B02EB820703EB4702A8F13003092B68
:10372800A246F4D942EAE2740A9412E61099109C6F
:1037380008680127221D00230B970E9710928DF819
:10374800A0008DF8733028AF002312931593D2E6AA
:10375800099C44F0080309939AF80080F7E5099951
:10376800204D8F06199548D5109FFA1D22F00703A2
:1037780003F108041094D3E900450999C80740F1FA
:10378800448454EA050000F04084302041F00207E8
:103798008DF874008DF875800997022364E71098F6
:1037A8000999109D071D104841F002034FF0780851
:1037B80030222C680993109700258DF874208DF815
:1037C8007580199002234FE7099B43F02002099264
:1037D8009AF80080BBE500BF30820408DC81040849
:1037E800E0810408EC8104080082040820820408AF
:1037F80009999B4D8F061995B6D40998C50600F10D
:103808009285099F7C0640F18E85109A0025131D2C
:1038180014881093B1E7B8F1000F3FF4F3AE01221A
:1038280000240B928DF8A0808DF873400E9228AF7B
:103838008AE7109C0123E01D20F0070505F1080721
:103848001097D5E900450FE79DF87330002B40F03D
:1038580095868DF873009AF8008078E5099C44F005
:10386800010709979AF8008071E5099F47F08003DE
:1038780009939AF800806AE557460022A8F13005B6
:1038880017F8018B02EB8203A8F13004092C05EB31
:103898004302BA46F2D90D925BE5099CA40640F1B1
:1038A8006186109F0F983B68C417043718605C60E6
:1038B800109715E5099A42F0400309939AF8008099
:1038C80045E5109B00248DF873401F681D1D002FCF
:1038D80001F0C5800A9938460029C1F202802146C4
:1038E8000A9A03F069F8002801F042810A99C01B7E
:1038F80088420E90129440F3A687129821EAE17448
:103908000B949DF8733010950E911590EFE59AF889
:1039180000805246B8F16C0F00F0DE86099F47F030
:103928001003099313E53846594625AA03F064FEA7
:1039380000287FF46EAE103E102E32AB2799269ADF
:103948003FF737AE2F4635461E464C191B9B511C78
:10395800072986E828002794269100F30F84083663
:1039680000E0279C9DF8730068B1269B0134591C20
:1039780001200DF1730207293260706027942691A7
:1039880000F3058308360A9B63B126990234481C64
:1039980002231DAA0728326073602794269000F33B
:1039A80001830836139D802D00F02E82129D0E9BF8
:1039B800ED1A002D75DD102D40F3F385269A10239E
:1039C80001322848A5F1110EE418072AC6F800901C
:1039D80073600A9027942692CEF3001C00F3AC8201
:1039E8000836103D102D51DDBCF1000F0DD001320D
:1039F8001034072AC6F8009073602794269200F3C3
:103A0800AD820836103D102D40DD31463E460C9FF4
:103A18000EE0083101321034103D072AC1F8009039
:103A28004B60269227941FDC103D0831102D2BDDAA
:103A380001321034072AC1F800904B60279426926F
:103A4800E7DD3846594625AA069303F0D5FD069BBF
:103A580000287FF4DEAD279C269A32A9DAE700BF5A
:103A680000820408208204083846594625AA06938D
:103A780003F0C2FD069B00287FF4CBAD103D102D4E
:103A880032A9279C269AD3DC37460E46501C0A9B3F
:103A98006419072886E828002794269000F36C828A
:103AA8000836099BDB0500F11E8126980E9A3760BF
:103AB800411C0E9FA418072977602794269100F3CC
:103AC800A8800836099F7B0740F1B1800D9D0B9BAC
:103AD800ED1A002D40F3AB80102D40F3CC872698CB
:103AE8001027431CB24948F23020A5F1110CE41903
:103AF800C0F60400072B86E88100099127942693D5
:103B0800CCF3001800F3BB830836103D102D40F3AA
:103B1800AD80B8F1000F11D0013348F230201034D5
:103B2800C0F60400072B86E881002794269300F34B
:103B3800D1830836103D102D40F39880DDF8308091
:103B480012E00836013348F230201034C0F6040081
:103B5800103D072B86E881002693279477DC103DDB
:103B68000836102D40F38280013348F23022103499
:103B7800C0F60402072B86E8840027942693E0DD2C
:103B88004046594625AA03F037FD00287FF441AD89
:103B9800279C269B32AED5E71199269D0134013525
:103BA800012940F379840123072D37607360279436
:103BB800269500F38784083618990135149A6418F5
:103BC800072D326071602794269500F388840836A3
:103BD800DDE9160100220023FCF7F2FE002840F080
:103BE800D982119801370138241801353760072D1B
:103BF80070602794269500F3898108361A9F01354D
:103C0800E41921AB072D86E88800279426957FF7CD
:103C180058AF0C98594625AA03F0EEFC00287FF40B
:103C2800F8AC099F32AE7B07279C3FF54FAF0F9E3C
:103C38000B980D9FB842ACBF3618F6190F96002C9A
:103C480040F070810026269632AEFFF749BB404609
:103C5800594625AA03F0D0FC00287FF4DAAC103DC1
:103C6800102D32AE279C269B3FF77EAF5A1C099F2A
:103C78002C19072A3760756027942692D7DD0C988F
:103C8800594625AA03F0B8FC00287FF4C2AC279C4B
:103C9800CDE7012B00F0AB81022B0DF1C70E00F030
:103CA8008C810723E70804EA0300E90847EA45741A
:103CB80030300D46C2B254EA050177468EF800202E
:103CC8000EF1FF3EEED109983B46C10706D5302AD2
:103CD80000F096813024774603F8014C0899CA1BF6
:103CE8000E92FFF7F9BBB8F1650F7FF755AFDDE925
:103CF800160100220023FCF763FE002800F0B281C1
:103D080026982C49431C01340122072B316072602C
:103D18002794269300F34A8408361E98119FB842C8
:103D280003DB099BDF077FF5CDAE269A149F189910
:103D38003760501C189F64180728776027942690CE
:103D480000F375850836119D013D002D7FF7BAAE49
:103D5800102D40F38682269A119B1027A3F1120E8C
:103D68001548531CE419072BC6F8009077600A9091
:103D780027942693CEF3001800F317860836103DD3
:103D8800102D40F37182B8F1000F0ED001331034BA
:103D9800072BC6F8009077602794269300F32B86AC
:103DA8000836103D102D40F35F82DDF8308016E0B4
:103DB800308204081C8204082082040808364B1C40
:103DC8001034103D072BC6F800907760269327948F
:103DD80000F31E810836103D102D40F34582591C12
:103DE80010340729C6F80090776027942691E5DDFE
:103DF8004046594625AA03F0FFFB00287FF409AC8A
:103E0800279C269932AEDAE70D980B99451A002DB2
:103E18007FF7CCAD102D40F38886269A1023013207
:103E28008F48A5F11101E418072AC6F800907360BD
:103E38000A9027942692C1F3001C00F31B830836CE
:103E4800103D102D4ADDBCF1000F0DD001321034A9
:103E5800072AC6F8009073602794269200F32483FB
:103E68000836103D102D39DD21460C9C0EE0083631
:103E780001321031103D072AC6F80090736026926F
:103E880027911ADC103D0836102D26DD013210313D
:103E9800072AC6F80090736027912692E7DD20462E
:103EA800594625AA069303F0A7FB069B00287FF432
:103EB800B0AB2799269A32AEDAE72046594625AAAA
:103EC800069303F099FB069B00287FF4A2AB103DF4
:103ED800102D32AE2799269AD8DC0C46501C0A9B26
:103EE8006419072886E828002794269000F3098398
:103EF80008365BE55A480A9001350A9BE419072DF4
:103F080086E88800279426957FF777AE0C9859465F
:103F180025AA03F071FB00287FF47BAB32AE279C07
:103F2800269D6BE60C98594625AA03F065FB0028E8
:103F38003FF488AEFFF76DBB0C98594625AA069347
:103F4800CDF81CC003F058FB069BDDF81CC0002808
:103F58007FF45FAB32AE279C269A42E50C9859460F
:103F680025AA069303F048FB069B00287FF451AB73
:103F780032AE279C269A45E50C98594625AA03F0A7
:103F88003BFB00287FF445AB279C32AE89E50C98B3
:103F9800594625AA03F030FB00287FF43AAB279C4A
:103FA80032AEF0E40C98594625AA03F025FB002808
:103FB8007FF42FAB279C32AEF4E419990B960F26A9
:103FC80004EA060327092809CA1847EA0574167877
:103FD800054654EA050077468EF800600EF1FF3E6C
:103FE800EDD108990B9ECB1B0E93FFF775BA002DE8
:103FF80008BF0A2C80F04F8142AF303407F8414D9A
:10400800089CE21B0E92FFF767BA0223FFF72CBB4E
:104018004046594625AA03F0EFFA00287FF4F9AA8A
:1040280032AE279C269BD6E60C98594625AA0693BD
:1040380003F0E2FA069B00287FF4EBAA32AE279938
:10404800269AFFF786BA0C98594625AA03F0D4FA9F
:1040580000287FF4DEAA32AE2799269AFFF78CBA99
:10406800208204081E9A002A40F3B282119D1599F5
:10407800119B8D42A8BF0D46FA18002D0A920ADD41
:1040880026986419411C0729376075602794269182
:1040980000F37F840836159B25EAE5755D1B002D26
:1040A80040F35681102D40F36D8226984FF010088A
:1040B800431CA14AA5F111014444072BC6F80090FE
:1040C800C6F804800E9227942693C1F3001C00F3CF
:1040D8004F840836103D102D40F35782BCF1000F75
:1040E8000FD001331034072BC6F80090C6F80480AF
:1040F8002794269300F38C840836103D102D40F346
:10410800448221460C9C12E006F10800013310316C
:10411800103D072BC0F80090C0F804802693279123
:104128001BDC00F10806103D102D40F30D8401330F
:104138001031072BC6F80090C6F804802791269303
:10414800E2DD2046594625AA03F056FA00287FF4F6
:1041580060AA2799269B32A8D8E72046594625AA5F
:1041680003F04AFA00287FF454AA32AE2799269B16
:10417800D9E70A9C32AF0E94FFF7AEB90C985946AE
:1041880025AA03F039FA00287FF443AA279C32AE07
:10419800FFF7E8BB119F013F002F7FF72FAD102FCE
:1041A8007FF7A8AE119B4FF0100801356249123B0A
:1041B8004444072DC6F80090C6F804800A91279455
:1041C8002695C3F3001300F3B1830836103F102F70
:1041D8007FF792AE7BB101351034072DC6F80090F9
:1041E800C6F804802794269500F3B6830836103F56
:1041F800102F7FF781AE22460C9C10E0083601355F
:104208001032103F072DC6F80090C6F80480279298
:1042180026951ADC0836103F102F40F35F830135CE
:104228001032072DC6F80090C6F80480279226950C
:10423800E4DD2046594625AA03F0DEF900287FF47C
:10424800E8A9279A269D32AED9E72046594625AADD
:1042580003F0D2F900287FF4DCA932AE279A269D14
:10426800D9E73549269B0A9101330A9F6419072B20
:1042780037607560279426937FF723ACC9E40C98C0
:10428800594625AA03F0B8F900287FF4C2A932AE2E
:10429800279C269B39E40DF1C70C0B9666462046F1
:1042A80029460A220023FCF743FE303232702046AA
:1042B80029460A220023FCF73BFE04460D463746F2
:1042C800013E54EA0500EAD108990B9ECB1B0E93D8
:1042D800FFF702B90C98594625AA03F08DF9002872
:1042E8007FF497A932AE279C269B23E4109D2B6868
:1042F800291DDD171A461C462B46002A73F10000BB
:104308001091BFF6CBA82D22644265EB45058DF8C8
:1043180073200123FFF7C3B810990D1D0C68109581
:104328000025FFF7A1B9109C2568201D10902C4688
:104338000025FFF722BA00BF208204080C985946CE
:1043480025AA03F059F900287FF463A9279C32AE07
:104358001E9B1198159983420F4470DB099AD10767
:104368006DD40A9D119AED1BD31AAB42B8BF1D46F6
:10437800002D0ADD26996419481C072837607560E6
:104388002794269000F35D83083625EAE5755D1BC2
:10439800002D7FF797AB102D7FF763AF269A102774
:1043A800531C8849A5F11108E419072BC6F8009099
:1043B80077600A9127942693C8F3001800F3358391
:1043C8000836103D102D7FF74FAFB8F1000F0ED013
:1043D80001331034072BC6F8009077602794269392
:1043E80000F34E830836103D102D7FF73DAFDDF802
:1043F80030800FE00836431C1034103D072BC6F8F8
:10440800009077602693279428DC0836103D102DFD
:104418007FF72AAF581C10340728C6F80090776039
:1044280027942690E6DD4046594625AA03F0E4F88D
:1044380000287FF4EEA8279C269832AEDBE7269862
:104448001899421C641818981499072A31607060EA
:104458002794269200F3B682083682E740465946EA
:1044680025AA03F0C9F800287FF4D3A832AE279C08
:10447800269BCBE70C98594625AA0693CDF81CC075
:1044880003F0BAF8069BDDF81CC000287FF4C1A829
:1044980032AE279C269AD3E4099AD2073FF583AB1C
:1044A80037600120FFF7A3BB0C98594625AA06934D
:1044B80003F0A2F8069B00287FF4ABA832AE279C35
:1044C800269ACEE40C98594625AA03F095F80028B8
:1044D8007FF49FA8279C269D32AEFFF76DBB0C98F2
:1044E800594625AA03F088F800287FF492A8279C4B
:1044F800269D32AEFFF76CBB0A9F0E9732AFFEF7D0
:10450800EBBF0C98594625AA03F076F800287FF4EB
:1045180080A8279C32AEFFF749BA02F0F7FF0028BF
:1045280040F0E4800327099A274B0B97274F22F086
:1045380080010324B8F1470FD8BF1F461290099194
:104548009DF873300E941590FEF7D1BF09994B066C
:1045580040F1B281109A0123111D14880025109191
:10456800FFF782B8099FF80640F1AB81109C0F9ABB
:104578002168271D10970A60FEF7B2BE9AF80080DE
:10458800FEF7E5BE0F4A269B0E925A1C0E99641937
:10459800072A86E82200279426923FF7CFAE0836EE
:1045A800D6E60849269A0A91FFF770BA0C98594638
:1045B80025AA03F021F800287FF42BA8279C32AE07
:1045C800FFF7ABBB20820408E4810408E8810408F3
:1045D8002699B74B481C01340121072833607160C4
:1045E8002794269000F3498108362AB9119818B9FA
:1045F800099BD8077FF566AA26981899431C641862
:1046080018981499072B316070602794269300F34B
:10461800C7820836C2F10008B8F1000F40F37A816A
:10462800B8F1100F40F3DA8110250133A8F1110217
:10463800A0486419C2F30011072BC6F800907560F2
:104648000A90279426930E9100F3DA820836A8F18F
:104658001008B8F1100F40F3C3810E9A82B10133EC
:104668001034072BC6F8009075602794269300F342
:104678000F830836A8F11008B8F1100F40F3B08185
:1046880020460C9C13E0083601331030072BC6F87F
:1046980000907560A8F110082790269300F3FC801D
:1046A8000836A8F11008B8F1100F40F394820133CE
:1046B8001030072BC6F80090756027902693E2DD2E
:1046C8002046594625AA02F097FF00287EF4A1AF9C
:1046D8002798269B32AED7E7099C0AF1010A44F0D5
:1046E8002007099792F80180FEF731BE0A98471C07
:1046F80000F0CF80B8F1670F00F04C82B8F1470F97
:1047080000F048820998002C40F480771397C0F293
:104718006B8200211291B8F1660F00F00B82B8F19C
:10472800460F00F00782B8F1650F00F06282B8F119
:10473800450F00F05E82DDF828C002218DE80210E6
:104748001EA81FAF20A9029003972A46234604916A
:104758000C98CDF81CC000F07FFCB8F1670F074635
:10476800DDF81CC002D0B8F1470F03D1099AD00771
:1047780040F1438207EB0C03B8F1460F0B9300F0AE
:10478800EE812846214600220023FCF719F900BBD8
:10479800209A0B9C944240F2D88213463021D04391
:1047A80003F8011B2018A342209300F001000FD04A
:1047B80028B151700B9A01339342209308D00B9C77
:1047C800184600F8011B5970431CA3422093F7D1E7
:1047D8000B930B99B8F1670FC7EB0103119300F026
:1047E8006681B8F1470F00F06281B8F1660F40F0BA
:1047F800B8821E9A0A9C002A40F38882002C40F056
:1048080053820999C80700F14F8222EAE2730B9399
:104818000E9215921299002900F0438113982D22C7
:1048280000218DF8732009901291FEF761BE0C9853
:10483800594625AA02F0E0FE00287EF4EAAE279C3D
:1048480032AEFFF780BA0E9B109523EAE3720B9203
:104858009DF873301594FEF74ABE0C98402101F07C
:1048680013FECBF80000CBF81000002800F072828D
:104878004026CBF81460FEF726BD0C98594625AAA9
:1048880002F0BAFE00287EF4C4AE1E9A279C32AE0F
:10489800ABE606220A9235E72046594625AA02F0D9
:1048A800ABFE00287EF4B5AE32AE2798269BF8E61C
:1048B8001C82040820820408109805680746FEF741
:1048C800B6BD109A099913680F9F101D11F0400F7B
:1048D800109014BF1F801F60FEF702BD1446FFF73B
:1048E8000BBB02F059FE1294129C20EAE0720E9063
:1048F8000B929DF8733010951594FEF7F8BD0C983F
:10490800594625AA02F078FE00287EF482AE279C3C
:10491800269B32AE11995A1C6418072A37607160B9
:10492800279426927FF7CDA8FFF773B90C985946BC
:1049380025AA069302F060FE069B00287EF469AE65
:1049480032AE279C269D41E40C461EE6A34C2799CF
:10495800269A1B94FEF7F9BF0C98594625AA02F02F
:104968004BFE00287EF455AE32AE279C269D3EE4D1
:104978000C98594625AACDF81CC002F03DFEDDF87A
:104988001CC000287EF445AE32AE279C269BFFF75C
:10499800A1BB0C98594625AA02F02EFE00287EF4E9
:1049A80038AE279C32AEFFF776BB0C98594625AA3D
:1049B80002F022FE00287EF42CAE32AE279C269B05
:1049C800FFF7DDB90C98594625AA02F015FE002814
:1049D8007EF41FAE1E9B279C32AEC2E480490A912A
:1049E80001330A994444072B86E802012794269349
:1049F80085DC08368EE70C98594625AA02F0FCFD9E
:104A080000287EF406AE32AE279C269BFFF7C9B974
:104A18000C98594625AA02F0EFFD00287EF4F9AD5E
:104A280032AE279C269BFFF768BB0C98594625AAEF
:104A380002F0E2FD00287EF4ECAD32AE279C269B06
:104A4800BFE40C98594625AA02F0D6FD00287EF44A
:104A5800E0AD119E1E9F279CF31B32AE95E40A9F82
:104A68001095062F28BF062727EAE7710E970B91A6
:104A78005C4FFEF769BE594A269B0992FFF7F6B8C4
:104A88000C98594625AA02F0B7FD00287EF4C1AD5E
:104A980032AE279C269BA6E42D238DF87330FEF7B3
:104AA80005BE139C9DF873300994FEF720BD1E9A2D
:104AB800D11C104602DB0A9C944228DAA8F10208AD
:104AC800431E002B1E938DF88480C0F232812B2266
:104AD8008DF88520092B00F39F80303330208DF826
:104AE80086008DF8873022A921AA119B119C881A6B
:104AF8001918012C1A900E9140F310810E9C002376
:104B0800621C22EAE2700E920B90159382E61199CC
:104B18008A4252DB0999CB0700F1DF8022EAE2736F
:104B28000B930E924FF0670873E62D4B269A0A9363
:104B3800FFF7D4B90A9F0320009001971EA91FA868
:104B480020AF2A4623460390049702910C9800F060
:104B580083FA0A9ADDF828C0831807460B93397838
:104B6800302900F0A9801E980B9A13180B9308E6B9
:104B78000A9B0A9A23EAE37112900B919DF873300D
:104B880010950E921590FEF7B2BC0022A2460A922A
:104B9800FEF7DFBB0A9F002F08BF01270A97B1E580
:104BA8000C98594625AA02F027FD00287EF431AD5D
:104BB8001E9A279C269B32AE2CE5002A119BD4BF57
:104BC800C2F102000120C01820EAE0740E900B9494
:104BD8004FF067081DE6044602E700BF308204086C
:104BE80020820408148204082D2204F10044129241
:104BF80091E50A9B03F1010C9FE5209C0B94E8E5E5
:104C08000C98594625AA02F0F7FC00287EF401AD5D
:104C180032AE279C269B1AE546F267650DF1920095
:104C2800C6F2666585FB0324DA17C2EBA40101EB23
:104C38008104A3EB4403024603F130001070501EB8
:104C480009290B46EEDC30330DF19305D9B28542C4
:104C580002F8011C7BD9AC1AE4070DF18500134654
:104C68000DD58DF8861013460DF1860013F8011B3B
:104C780005E013F8014B481C4C7013F8011B4170F8
:104C8800411CAB42F5D142ACC2EB4401F6392BE7EB
:104C98000C98594625AA02F0AFFC00287EF4B9AC5E
:104CA80032AE279C269BE5E40A9C601C111821EA79
:104CB800E1730E910B93ACE52846214600220023B0
:104CC800CDF81CC0FBF77CFEDDF81CC000287FF483
:104CD8004AAFCCF101001E9046E7501C20EAE07470
:104CE8000E900B944FF0670893E5109F109B3A685D
:104CF8001F1D002A9AF801800A921097A246BEF654
:104D080026AB4FF0FF340A94FEF721BBB4B90998DB
:104D1800C10713D401210B910E917AE5099A12F07B
:104D280001007FF4EBAE0E9B159023EAE3710B9123
:104D380070E52D215B428DF88510CBE60A9B9C1C03
:104D480024EAE4700E940B9063E50B9241E50DF1B3
:104D58008601C9E60C9C0C2020604FF0FF30FEF75E
:104D680063BC1E98ACE600BF2DE9F04F03690C69DF
:104D780083B09C42064600F36B81E01C82008F18CA
:104D8800B5187B6868685A1CB0FBF2F501F114038A
:104D98000193013C043706F11408002D00F0BF8090
:104DA8004B69D8F8002098B24FEA134C05FB00F085
:104DB80005FB0CF303EB104C1FFA8CFE93B280B288
:104DC8001B1ACEEB1242019802EB234E1FFA83F90D
:104DD80001F1180249EA0E49381A06F118039742F8
:104DE80043F8049CC0F380004FEA1C4C4FEA2E4E57
:104DF80072D328B310681B6882B2000C05FB02C28C
:104E080005FB00F01FFA83FC00EB1240F44492B259
:104E18001FFA80FEC2EB0C0CCEEB134303EB2C4EB7
:104E28001FFA8CF242EA0E4C01F11C0206F11C0337
:104E3800974243F804CC4FEA2E4E4FEA104C4BD31E
:104E4800104650F804BBD3F800901FFA8BFA4FEACB
:104E58001B4B05FB0ACC05FB0BFB1FFA89FA0BEB76
:104E68001C4BD6441FFA8CFC1FFA8BFACCEB0E0EA7
:104E7800CAEB194909EB2E4A1FFA8EFC99464CEAEF
:104E88000A4E49F804EBD2F804C05A681FFA8CF3AA
:104E980005FB03FE4FEA1C4C05FB0CF30EEB1B4B0A
:104EA80003EB1B4C93B21FFA8CFE03EB2A431FFA49
:104EB8008BFBCBEB0303CEEB124202EB234E9AB2F1
:104EC8004B4642EA0E49021D974243F8049B4FEABB
:104ED8001C4C4FEA2E4EB3D2201D06EB80035A68B5
:104EE800EAB9181D984519D250F8042CB2B9043BF8
:104EF800C8EB0300C21C50070DD5013C98450DD2E4
:104F08001A68043B3AB109E01868043B30B91A68DA
:104F1800013C043B12B9013C9845F5D33461304655
:104F280002F05AF90028C0F28280019AD8F80010DD
:104F380052F8040B1FFA81FC83B2000CC3EB0C037C
:104F4800C0EB114101EB23401FFA83FE019B4EEA9F
:104F5800004CF91A013543460014974243F804CB34
:104F6800C1F380014BD3B9B152F804EB19681FFAA9
:104F78008EF91FFA81FAC9EB0A094FEA1E4C484418
:104F8800CCEB114101EB204180B240EA014043F8EB
:104F9800040B0814974232D38246114651F8040B89
:104FA800D3F800E01FFA80F91FFA8EFB4FEA104C85
:104FB800C9EB0B0B0BEB0A00CCEB1E4A0AEB2049A2
:104FC80080B29E4640EA09404EF8040B50685A6881
:104FD80083B21FFA82FC000CC3EB0C0303EB2943DA
:104FE800C0EB124202EB23409AB242EA004A0A1D81
:104FF8007346974243F804AB4FEA204ACDD2211DAD
:1050080006EB8103586890B91A1D98450ED252F8DC
:10501800041C59B9043BC8EB0300C21C520713D542
:10502800013C984502D21868043B68B134612846AF
:1050380003B0BDE8F08F1A68043B002AF6D119685E
:10504800013C043B0029F1D1013C9845F3D3EDE73D
:105058000020EDE7000000002DE9F04F016C9FB043
:1050680081462B9C92469B4651B1436C012202FA21
:1050780003F24B608A6001F069FD0020C9F8400026
:10508800BBF1000839DB0021216000242246C7F665
:10509800F074C7F6F07208EA0403934216D050463B
:1050A800594600220023FBF78BFC00282BD02A9DB1
:1050B8002C9C01212960002C00F0CF80A24A22609C
:1050C80002F1FF3840461FB0BDE8F08F2A9C42F23B
:1050D8000F752560BAF1000F00F0A680DFF8708226
:1050E8002C9D002DEED098F80340002C00F008828B
:1050F80008F108012C9C2160E4E728F0004801250C
:105108002560C346C1E71DAE1CAF52460096019705
:1051180048465B4602F09AF9C8F30A520B90002AF7
:1051280040F08C801C9F1D986FF482613E188E425F
:10513800C0F218834FF60E45CFF6FF75A81B06F28E
:10514800124208FA00F12AFA02F341EA0300FBF7D7
:1051580059F90124A1F1F871013E0C9400230022B1
:10516800C3F6F873FBF710F871A3D3E90023FBF734
:10517800BFF971A3D3E90023FBF708F804463046CA
:105188000D46FBF74FF96EA3D3E90023FBF7B0F9FF
:1051980002460B4620462946FAF7F8FF04460D4614
:1051A800FBF740FC29460790002220460023FBF726
:1051B80011FC002840F0AC82079C162C00F2A58256
:1051C800624D524605EBC4005B4603C8FBF720FC62
:1051D800002800F0CF82079A0024511E07911094EE
:1051E800BE1B013E00F1AB82002508960A95079880
:1051F8000028C0F29B82089A0F901118002008918D
:105208000E90289C092C2BD8052C41F31E80231FB7
:1052180028930025289A911E032923D8DFE811F046
:10522800250513052B032205494B4A48C8F31308E3
:10523800B8F1000F0CBF8046984651E72BF07F4726
:1052480027F4700444F07F55A2F2FF36002250463E
:1052580045F440111C9F0C9280E7DFF8FC8031E791
:105268000025289500242146C9F84440484601F005
:1052780047FC4FF0FF33012180460993C9F84000ED
:10528800119329940D911D980028C0F23C81079A2A
:105298000E2A00F338812D4D299B05EBC200002B07
:1052A800D0E90045CDE90445C0F2E284DDE90423F4
:1052B80050465946FBF746FAFBF7B4FB0646FBF7A0
:1052C800B1F8DDE90423FBF713F902460B46504613
:1052D8005946FAF759FF099B06F13002C246012BDD
:1052E80004460D460AF8012B00F0958000230022A1
:1052F800C4F22403FBF7FCF80022002304460D4601
:10530800FBF75EFB002840F0BE80099E08F102070B
:1053180008EB060BC7EB0B00C20700F1C680CDF8FF
:105328001880CDF82090DDE904894CE0AFF30080C7
:1053380061436F63A787D23FB3C8608B288AC63F93
:10534800FB799F501344D33F1D82040870820408E0
:105358004C820408408204081C820408FBF7C8F841
:105368000022002304460D46FBF72AFB42464B4623
:10537800002840F0758520462946FBF7E3F9FBF73E
:1053880051FB0646FBF74EF842464B46FBF7B0F892
:1053980002460B4620462946FAF7F6FE3036002329
:1053A8000022C4F2240307F8016CFBF7A1F80022DD
:1053B8000023BA4604460D4607F10107FBF700FB38
:1053C800002840F04D8542464B4620462946FBF7CB
:1053D800B9F9FBF727FB0646FBF724F842464B468C
:1053E800FBF786F802460B4620462946FAF7CCFE1C
:1053F8000023002206F1300C5F4507F801CCBA46BD
:1054080004460D46C4F2240307F10107A6D1DDF8CE
:105418001880DDF8209022462B4620462946FAF7C8
:10542800B5FE04460D462246DDE904012B46FBF78E
:10543800D1FA40B9DDE9040122462B46FBF7C0FA50
:1054480008B3F0071FD51AF8017C6FEA08010AEBC8
:105458000102D10706D5392F0AF1FF3310D113F80D
:10546800017C9A46392F0AF1FF3309D1984500F09B
:10547800058513F8017C9A46392F03F1FF33EED0E6
:10548800781CC4B21C7048460B9901F05FFB0024DD
:10549800079B8AF800402A9D2C9C581C2860002CE9
:1054A8003FF410AEC4F800A00CE6DDE90423204662
:1054B8002946FBF747F9FBF7B5FA0646FAF7B2FFB4
:1054C800DDE90423FBF714F802460B46204629467B
:1054D800FAF75AFE303600230022C4F2240307F8F4
:1054E800016CFBF705F800220023BA4604460D4676
:1054F80008F10307FBF764FA00283FF410AFC2E78E
:1055080008F10301F6E50D9F002F00F01D81289C8E
:10551800012C40F3DC8309990E9A481E8242C0F29E
:10552800B884151A09990029C0F207860A9C099FB0
:105538000A9A4846D319089A0121D7190A93089755
:1055480001F0D8FB0C9064B10898002809DD0A998D
:105558000346A342A8BF2346CA1AC71A0A92E41AE6
:1055680008970E9800281ADD0D9B002B00F07E840A
:10557800002D10DD0C992A46484601F02DFD0C90AF
:105588000C990B9A484601F0BFFB0B990646484612
:1055980001F0DCFA0B960E994A1B40F09283012128
:1055A800484601F0A7FB0F9D0746002D05DD39464B
:1055B80048462A4601F010FD0746289A012A40F37A
:1055C800418100250F99002940F0F58301220899AF
:1055D800521812F01F0000F0BC80C0F12002042A0B
:1055E80040F32D860A9AC0F11C00131809180A9373
:1055F800241808910A9A002A04DD48460B9901F0FC
:1056080035FD0B90089A002A04DD3946484601F01A
:105618002DFD07461098002840F0B5830999002908
:1056280040F3D2830D98002840F0A680099C0D9D78
:10563800E30740F18983A2460B9E10E001F090FA3F
:1056480039460646FFF790FB303008F8040031462B
:1056580048460A22002301F083FA651C06463946AB
:105668003046FFF781FB6C1C00F1300B0A22002347
:10567800A2453146484608F805B0DFDC0B96099983
:1056880000250129ACBF08EB010A08F1010A012233
:105698000B99484601F0EAFC39460B9001F09CFD55
:1056A800002840F32B841AF8012C6FEA08030AEB50
:1056B8000301CC0706D5392A0AF1FF3410D114F8B2
:1056C800012CA246392A0AF1FF3409D1A04500F07D
:1056D800538314F8012CA246392A04F1FF34EED082
:1056E800501C20704846394601F030FA0C9A002ABE
:1056F8003FF4C9AE002D00F0DE82954200F0DB8257
:105708004846294601F022FAD5E20123109367E5BD
:105718000798FAF787FE22462B46FBF751F900282F
:105728007FF44AAD0798411E079145E50A9A079903
:105738000025541A4B420A940E930F9561E5764260
:1057480000230A96089352E50D9B0E9D0A9C0C9324
:10575800F9E61C230A99089AC818E418D3180A907D
:10576800089347E74FF6EE33CFF6FF739C1B0AFA10
:1057780004F0ECE4109033E5002C05DD48460C9964
:10578800224601F073FC0C90002D40F0F0830C9E33
:10579800099808F1010408EB00010C9D0AF00102C8
:1057A800CDF83080DDF82C8009910A9239464046C0
:1057B800FFF7DAFA29468246404601F00DFD3246E7
:1057C80006903946484601F035FDC3680246601E1A
:1057D80008900AF1300B002B00F0828248461146EF
:1057E80001F0B4F9012306990029C0F2668305D1B6
:1057F800289A1AB90A98002800F05F83002B00F352
:10580800CE83099B04F801BC9C42A24600F0D783D2
:1058180041460A220023484601F0A2F9B5428046D3
:1058280000F0888229460A220023484601F098F9A8
:10583800314605460A224846002301F091F9013411
:105848000646B3E7BAF1000F7FF4BBAECBF3130300
:105858005846002B40F076840025C7F6F0750540C1
:10586800002D3FF4AFAE0A9908984A1C431C0A92CF
:1058780008930125A6E601200D90299A002A40F3F5
:1058880017831446119209920021172CC9F8441065
:105898000AD9012204235B0003F1140011460132E6
:1058A800A042F8D9C9F84410484601F029F90E2C4D
:1058B8008046C9F840003FF6E6AC002D3FF4E3AC63
:1058C800079FCDE914AB002F40F32E83994807F0CA
:1058D8000F0600EBC6013E11D1E90045F10640F183
:1058E800E182954F5046D7E908235946FAF72AFF2F
:1058F800CDE9120106F00F06032786B1DFF838A2BA
:1059080020462946F20704D5DAE90023FAF7F0FD24
:10591800013776100AF1080AF4D104460D46DDE98C
:10592800120122462B46FAF70DFF82468B46109B42
:1059380053B10023504659460022C3F6F073FBF7D3
:1059480049F8002840F00D843846FAF76BFD5246B6
:105958005B46FAF7CDFD00230022C4F21C03FAF7D8
:1059680015FC04460998A1F15075002800F05B82E7
:10597800079E1A96099E0D99002900F02A836D4FFB
:10598800002107EBC602A2F10803D3E90023002097
:10599800C3F6E071FAF7D6FE22462B46FAF7F4FB77
:1059A800CDE9160150465946FBF73CF80446FAF78C
:1059B80039FD02460B4650465946FAF7E5FB3034A6
:1059C800CDE91201DDE91223DDE91601E7B2C2468D
:1059D8000AF8017BFBF71CF8002840F0038400213B
:1059E800DDE912230020C3F6F071FAF7CDFB024679
:1059F8000B46DDE91601FBF70BF8002840F01B8485
:105A0800012E40F38D826FEA0A054644AF19002340
:105A180007F001040022C4F22403DDE916011896F8
:105A28001694FAF765FD00230022C4F22403044605
:105A38000D46DDE91201FAF75BFD0F460646FAF757
:105A4800F1FF8346FAF7EEFC02460B46304639462C
:105A5800FAF79AFB0BF13003DFB2D3460BF8017B60
:105A680022462B46CDE91201DA46FAF7B3FF0028A1
:105A780040F0E6800021DDE912230020C3F6F07132
:105A8800FAF782FB22462B46FAF7A4FF002840F0DB
:105A9800B28318998B4500F043821698002840D0AD
:105AA80000230022C4F2240320462946FAF720FDE9
:105AB80000230022C4F2240304460D46DDE9120146
:105AC800FAF716FD0F460646FAF7ACFF8246FAF7D4
